{
  "contractName": "Game",
  "abi": [
    {
      "constant": true,
      "inputs": [],
      "name": "award",
      "outputs": [
        {
          "name": "",
          "type": "uint256"
        }
      ],
      "payable": false,
      "stateMutability": "view",
      "type": "function"
    },
    {
      "inputs": [],
      "payable": false,
      "stateMutability": "nonpayable",
      "type": "constructor"
    },
    {
      "constant": true,
      "inputs": [],
      "name": "getAward",
      "outputs": [
        {
          "name": "",
          "type": "uint256"
        }
      ],
      "payable": false,
      "stateMutability": "view",
      "type": "function"
    }
  ],
  "bytecode": "0x608060405234801561001057600080fd5b50678ac7230489e8000060008190555060d98061002e6000396000f3006080604052600436106049576000357c0100000000000000000000000000000000000000000000000000000000900463ffffffff16806341a494c514604e578063fee50359146076575b600080fd5b348015605957600080fd5b506060609e565b6040518082815260200191505060405180910390f35b348015608157600080fd5b50608860a4565b6040518082815260200191505060405180910390f35b60005481565b600080549050905600a165627a7a723058202ad9b8ef8eca11a628571ef6ecd6e64175dd7dc17dcd0765f54995ea7a10606e0029",
  "source": "pragma solidity ^0.4.17;\n\ncontract Game {\n    //address owner;\n    //address player;\n\n    uint public award;\n    //uint public entryFee;\n\n    constructor() public {\n    //    owner = msg.sender;\n        award = 10 ether;\n    //    entryFee = 1 ether;\n    }\n\n    //function registerPlayer() public payable {\n        // require the user to send you cash to add to the pot\n    //    require(msg.value == entryFee);\n    //    award += msg.value;\n    //    player = msg.sender;\n    //}\n\n    function getAward() public view returns (uint) {\n        return award;\n    }\n\n    // awardPot(address winner) -> returns true // false\n    // problem that it is public, work out authorization\n    //function awardPot() public {\n        // require(msg.sender == owner);\n    //    player.transfer(award);\n    //}\n\n}\n",
  "sourcePath": "/home/zalsader/Downloads/Sphinx-HTN/contracts/Game.sol",
  "compiler": {
    "name": "solc",
    "version": "0.4.24+commit.e67f0147.Emscripten.clang"
  },
  "schemaVersion": "2.0.1",
  "updatedAt": "2018-09-16T01:38:21.409Z"
}