{
  "contractName": "Game",
  "abi": [
    {
      "constant": true,
      "inputs": [],
      "name": "entryFee",
      "outputs": [
        {
          "name": "",
          "type": "uint256"
        }
      ],
      "payable": false,
      "stateMutability": "view",
      "type": "function"
    },
    {
      "constant": true,
      "inputs": [],
      "name": "award",
      "outputs": [
        {
          "name": "",
          "type": "uint256"
        }
      ],
      "payable": false,
      "stateMutability": "view",
      "type": "function"
    },
    {
      "inputs": [],
      "payable": false,
      "stateMutability": "nonpayable",
      "type": "constructor"
    },
    {
      "constant": false,
      "inputs": [],
      "name": "registerPlayer",
      "outputs": [],
      "payable": true,
      "stateMutability": "payable",
      "type": "function"
    },
    {
      "constant": true,
      "inputs": [],
      "name": "getAward",
      "outputs": [
        {
          "name": "",
          "type": "uint256"
        }
      ],
      "payable": false,
      "stateMutability": "view",
      "type": "function"
    },
    {
      "constant": true,
      "inputs": [],
      "name": "getEntryFee",
      "outputs": [
        {
          "name": "",
          "type": "uint256"
        }
      ],
      "payable": false,
      "stateMutability": "view",
      "type": "function"
    },
    {
      "constant": false,
      "inputs": [],
      "name": "awardPot",
      "outputs": [],
      "payable": false,
      "stateMutability": "nonpayable",
      "type": "function"
    }
  ],
  "bytecode": "0x608060405234801561001057600080fd5b50336000806101000a81548173ffffffffffffffffffffffffffffffffffffffff021916908373ffffffffffffffffffffffffffffffffffffffff160217905550678ac7230489e80000600281905550670de0b6b3a76400006003819055506102668061007e6000396000f300608060405260043610610078576000357c0100000000000000000000000000000000000000000000000000000000900463ffffffff168063072ea61c1461007d57806341a494c5146100a85780635c07a4b0146100d35780639dea8ea7146100dd578063e586a4f0146100f4578063fee503591461011f575b600080fd5b34801561008957600080fd5b5061009261014a565b6040518082815260200191505060405180910390f35b3480156100b457600080fd5b506100bd610150565b6040518082815260200191505060405180910390f35b6100db610156565b005b3480156100e957600080fd5b506100f26101b9565b005b34801561010057600080fd5b50610109610226565b6040518082815260200191505060405180910390f35b34801561012b57600080fd5b50610134610230565b6040518082815260200191505060405180910390f35b60035481565b60025481565b6003543414151561016657600080fd5b3460026000828254019250508190555033600160006101000a81548173ffffffffffffffffffffffffffffffffffffffff021916908373ffffffffffffffffffffffffffffffffffffffff160217905550565b600160009054906101000a900473ffffffffffffffffffffffffffffffffffffffff1673ffffffffffffffffffffffffffffffffffffffff166108fc6002549081150290604051600060405180830381858888f19350505050158015610223573d6000803e3d6000fd5b50565b6000600354905090565b60006002549050905600a165627a7a7230582036163ae6c619d2952525ea7203fb8c65b44879826e4406ad097064b6224de53e0029",
  "source": "pragma solidity ^0.4.17;\n\ncontract Game {\n    address owner;\n    address player;\n\n    uint public award;\n    uint public entryFee;\n\n    constructor() public {\n        owner = msg.sender;\n        award = 10 ether;\n        entryFee = 1 ether;\n    }\n\n    function registerPlayer() public payable {\n        // require the user to send you cash to add to the pot\n        require(msg.value == entryFee);\n        award += msg.value;\n        player = msg.sender;\n    }\n\n    function getAward() public view returns (uint) {\n        return award;\n    }\n\n    function getEntryFee() public view returns (uint) {\n        return entryFee;\n    }\n\n    // awardPot(address winner) -> returns true // false\n    // problem that it is public, work out authorization\n    function awardPot() public {\n        // require(msg.sender == owner);\n        player.transfer(award);\n    }\n\n}\n",
  "sourcePath": "/home/zalsader/Downloads/Sphinx-HTN/contracts/Game.sol",
  "compiler": {
    "name": "solc",
    "version": "0.4.24+commit.e67f0147.Emscripten.clang"
  },
  "schemaVersion": "2.0.1",
  "updatedAt": "2018-09-16T02:50:58.642Z"
}